{
  "contractName": "buyTickets",
  "abi": [
    {
      "constant": true,
      "inputs": [
        {
          "name": "",
          "type": "uint256"
        }
      ],
      "name": "buyerAddresses",
      "outputs": [
        {
          "name": "",
          "type": "address"
        }
      ],
      "payable": false,
      "stateMutability": "view",
      "type": "function"
    },
    {
      "constant": false,
      "inputs": [
        {
          "name": "ticketId",
          "type": "uint256"
        }
      ],
      "name": "add",
      "outputs": [
        {
          "name": "",
          "type": "uint256"
        }
      ],
      "payable": false,
      "stateMutability": "nonpayable",
      "type": "function"
    },
    {
      "constant": true,
      "inputs": [],
      "name": "getBuyers",
      "outputs": [
        {
          "name": "",
          "type": "address[2]"
        }
      ],
      "payable": false,
      "stateMutability": "view",
      "type": "function"
    },
    {
      "constant": true,
      "inputs": [],
      "name": "completeTransaction",
      "outputs": [
        {
          "name": "",
          "type": "address[2]"
        }
      ],
      "payable": false,
      "stateMutability": "view",
      "type": "function"
    }
  ],
  "bytecode": "0x608060405234801561001057600080fd5b50610496806100206000396000f300608060405260043610610062576000357c0100000000000000000000000000000000000000000000000000000000900463ffffffff1680631003e2d214610067578063556b790f146100a8578063b3ae1d2c14610115578063f64bfaba14610168575b600080fd5b34801561007357600080fd5b50610092600480360381019080803590602001909291905050506101bb565b6040518082815260200191505060405180910390f35b3480156100b457600080fd5b506100d360048036038101908080359060200190929190505050610230565b604051808273ffffffffffffffffffffffffffffffffffffffff1673ffffffffffffffffffffffffffffffffffffffff16815260200191505060405180910390f35b34801561012157600080fd5b5061012a610265565b6040518082600260200280838360005b8381101561015557808201518184015260208101905061013a565b5050505090500191505060405180910390f35b34801561017457600080fd5b5061017d6103c7565b6040518082600260200280838360005b838110156101a857808201518184015260208101905061018d565b5050505090500191505060405180910390f35b60008082101580156101ce575060028211155b15156101d957600080fd5b336000836002811015156101e957fe5b0160006101000a81548173ffffffffffffffffffffffffffffffffffffffff021916908373ffffffffffffffffffffffffffffffffffffffff160217905550819050919050565b60008160028110151561023f57fe5b016000915054906101000a900473ffffffffffffffffffffffffffffffffffffffff1681565b61026d610448565b60008060008060028110151561027f57fe5b0160009054906101000a900473ffffffffffffffffffffffffffffffffffffffff169150600060016002811015156102b357fe5b0160009054906101000a900473ffffffffffffffffffffffffffffffffffffffff169050600073ffffffffffffffffffffffffffffffffffffffff168273ffffffffffffffffffffffffffffffffffffffff16141580156103415750600073ffffffffffffffffffffffffffffffffffffffff168173ffffffffffffffffffffffffffffffffffffffff1614155b151561034c57600080fd5b60006002806020026040519081016040528092919082600280156103bb576020028201915b8160009054906101000a900473ffffffffffffffffffffffffffffffffffffffff1673ffffffffffffffffffffffffffffffffffffffff1681526020019060010190808311610371575b50505050509250505090565b6103cf610448565b600060028060200260405190810160405280929190826002801561043e576020028201915b8160009054906101000a900473ffffffffffffffffffffffffffffffffffffffff1673ffffffffffffffffffffffffffffffffffffffff16815260200190600101908083116103f4575b5050505050905090565b60408051908101604052806002906020820280388339808201915050905050905600a165627a7a723058204eba1ff4f3d746d27e59a4e3422026cb60b04e84b938e6bb3fda1153a241acca0029",
  "source": "pragma solidity ^0.4.0;\n\ncontract buyTickets {\n    address[2] public buyerAddresses;\n    // mapping (address => bool) private nullBuyer;\n    \n    function add(uint ticketId) public returns (uint) {\n        require (ticketId >= 0 && ticketId <= 2);\n        buyerAddresses[ticketId] = msg.sender;\n        return ticketId;\n    }\n    function getBuyers() public view returns (address[2]) {\n        return buyerAddresses;\n    }\n    \n    function completeTransaction() public view returns (address[2]) {\n        address firstPerson = buyerAddresses[0];\n        address secondPerson = buyerAddresses[1];\n        require(firstPerson != address(0) && secondPerson != address(0));\n            return buyerAddresses;\n        }\n    }",
  "sourcePath": "/Users/margaretwalker/Grace-Hopper-Senior-Phase/pet-shop-tutorial/contracts/BuyTickets.sol",
  "compiler": {
    "name": "solc",
    "version": "0.4.24+commit.e67f0147.Emscripten.clang"
  },
  "schemaVersion": "2.0.1",
  "updatedAt": "2018-11-15T23:52:10.297Z"
}